:2000000075817F12057B12036D1201FD1201E21201C774031203CB74801203CB020077755F
:20002000F0049001B7740093F5B012050A12035BA3D5F0F12275F0049001BB740093F5B06B
:2000400012050A12035BA3D5F0F12275F0049001BF740093F5B012050A12035BA3D5F0F145
:200060002275F0049001C3740093F5B012050A12035BA3D5F0F12290014912045D30C8178D
:2000800020A302111F20A202113520A102114B20A0EB116102007D90018012045DC2D3117C
:2000A000BC11D4D2D311C811D4C2D311BC11D43127D2D311C811D431090200A912062AF81B
:2000C000645360B3B858F52212062AF8645360A7B859F522C3C220E9F812062AB42D06D38D
:2000E000D22012062A540FF5F012062AB42E08E5F0A220400FF922540FFA740AA42AA220EC
:200100004002F922F42401F922E998FBB40001225480B48009116111610BBB00F822114BCA
:20012000114B1BBB00F822E998FBB40001225480B4800B1135113511350BBB00F622111F2D
:20014000111F111F1BBB00F6228450454E20504C4F54544552942020204D616E75656C65E5
:20016000204D6F64757320202020D458706F7320586E65672059706F7320596E6567200009
:200180008450454E20504C4F5454455294204175746F6D61746973636865204D6F647573EB
:2001A00020D4204C65657320757720472D436F646520696E2E20001020408080402010085A
:2001C00004020101020408C08F758F04C0B275B20175C8FF75C9FF75B20075C900D0B2D0E8
:2001E0008F22C08F758F04C0B275B20143A00F43A10F75B20053A1F0D0B2D08F22C08F75A6
:200200008F04C0B275B20075B1FFD0B2D08F22C08F758F04C0B275B200D287D28375B203C2
:20022000D283D28775B20043860853867FD0B2D08F22C08F758F04C0B275B200D283D2871F
:20024000438680120333C287120333C283120333D0B2D08F22C08F758F04C0B275B20043B9
:200260008680C287120333D283120333D28712033353867FD0B2D08F22C0E0C0F0C08F753A
:200280008F04C0B275B20075F008438680339287120333D283120333C283D5F0F053867FF9
:2002A000120333D283A287120333C283D0B2D08FD0F0D0E022C08F758F04C0B275B200C0C8
:2002C000F0C0D075F00853867F120333D283A28733120333C283D5F0F0438680C2871203F7
:2002E00033D283120333C28353867FD0D0D0F0D0B2D08F22C08F758F04C0B275B200C0F08E
:20030000C0D075F00853867F120333D283A28733120333C283D5F0F0438680D28712033363
:20032000D283120333C28353867FD0D0D0F0D0B2D08F22C0E0C0D075E01AD5E0FDD0D0D05F
:20034000E022C0E0C0D0C0F075F03212035BD5F0FAD5E0F4D0F0D0D0D0E022C0E0C0D07575
:20036000E064120333D5E0FAD0D0D0E022C0E0C0D0C0F012020F75F0FD12051174101205A8
:200380000AD5E0FA74301204C912050A74301204C912050A74301204C912050A742012040E
:2003A000C912050A74281204B312050A740F1204B312050A74011204B312050A7406120471
:2003C000B312050AD0F0D0D0D0E022C0E0C0D0B480005046B42000503CB40C07740112046B
:2003E000B3803AB40107740F1204B38030B40207740E1204B38026B40307740C1204B380A3
:200400001CB40D0774021204B38012B40A0F74C01204B3800812047980031204B3D0D0D08A
:20042000E022C0E0C0D0540F2430B43A0040022407120479D0D0D0E022C0E0C0D0C412046D
:2004400022C4120422D0D0D0E022C0E0C0D0E583120439E582120439D0D0D0E022C0E0C09D
:20046000D0C083C082E49360071203CBA3020465D082D083D0D0D0E022C0E0C0D012048975
:20048000C4120489D0D0D0E022C0E0C0D0C0F012052AD2F0C2F154F0030353F0C342F0125D
:2004A0000511D2F1120511C2F1120511D0F0D0D0D0E022C0E0C0D01204C912050AC4120424
:2004C000C912050AD0D0D0E022C0E0C0D0C0F012052AC2F0C2F154F0030353F0C342F012A6
:2004E0000511D2F1120511C2F1120511D0F0D0D0D0E02274401204B374009312047920E7D4
:2005000003A380F474801204B32212035B12035B22C0E0C0D01202327440120279E5F01242
:200520000279120255D0D0D0E022C0E0C0D012023274411202791202F4120255F5F0D0D0B7
:20054000D0E022C0F012052AC2F6120511D0F022C0F012052AD2F6120511D0F022C0F01291
:20056000052AC2F7120511D0F022C0F012052AD2F7120511D0F02208200800C0E0C08F7531
:200580008F04C0B2C0BF75BF0075B2025390FD4390015391FE43910275B2005391FE439131
:2005A0000275985075BE9B75BD11D0BFD0B2D08FD0E022F5993099FDC29922C0E0C0D05434
:2005C0000F1206AB1205B3120614D0D0D0E022C0E0C0D0C0E0C41205BBD0E01205BBD0D059
:2005E000D0E022C0E0C0D0E5831205CFE5821205CFD0D0D0E022C0E0C0D0C082C083E493C0
:2006000060091205B3120614A380F3D083D082D0D0D0E022C0E0C0D0109805D0D0D0E022FF
:20062000E599B413F61098F380FB3098FDC298E5992212062A12069E1206B5400EC4F812C9
:20064000062A12069E1206B540014822785412062A547F12069EB40D02F622B40813B854EF
:200660000774071205B380E6189005771205F680DD12069040EBB87E0280E6F60880E478EF
:20068000547954E6B4200508B880F822F70980F7B420004007B47F005002C322D322B47B00
:2006A000005007B461004002942022B40A0040022407243022C394304010B40A00400A94A2
:2006C000074007B41000B34001C322E61206B5221206CB4009C4F9081206CB4001492212C8
:2006E00006D0400AF583081206D04002F58222C08F758F0475D10075CAB075CE0A75CC80FD
:2007000075D10675CC01D08F22C08F758F0475D10675CB2075D1000000E5CB20E0FB75D190
:2007200002E5CB85CAF0D08F22C08F758F0475D10675CB1075D1000000E5CB20E0FB75D11D
:2007400002E5CB85CAF0D08F22C0E0C0D0C070C071C072C073C074C075C076C077C078C063
:2007600079C07AC07BC07C7570007571007572007573007574007575007576007577007596
:200780007800757900757A00757B00757C20EB13FBEA13FAE913F9E813F8502CEC2574F535
:2007A00074ED3575F575EE3576F576EF3577F577E5703578F578E5713579F579E572357AD2
:2007C000F57AE573357BF57BC3EC33FCED33FDEE33FEEF33FFE57033F570E57133F571E536
:2007E0007233F572E57333F573D57CA2A874A975AA76AB77AC78AD79AE7AAF7BD07CD07B58
:20080000D07AD079D078D077D076D075D074D073D072D071D070D0D0D0E022C0E0C0D0C07F
:2008200070C071C072C073C074C075C0767570007571007572007573007574007575007531
:200840007610E913F9E813F85016EA2572F572EB3573F573E5703574F574E5713575F57510
:20086000C3EA33FAEB33FBE57033F570E57133F571D576CEA872A973AA74AB75D076D07591
:20088000D074D073D072D071D070D0D0D0E022C0E0C0D0C070C071C072C073C074C075C07D
:2008A00076C077C078C079C07AC07BC07C7570007571007572007573007574007575007587
:2008C0007600757700757800757900757A00757B00757C20E833F8E933F9EA33FAEB33FB93
:2008E000E57033F570E57133F571E57233F572E57333F573C3E5709CF574E5719DF575E5D9
:20090000729EF576E5739FF577400C857470857571857672857773B3E57833F578E57933BC
:20092000F579E57A33F57AE57B33F57BD57CA5AC78AD79AE7AAF7BA870A971AA72AB73D077
:200940007CD07BD07AD079D078D077D076D075D074D073D072D071D070D0D0D0E022C0E0C7
:20096000C0D0C070C071C072C073C074C075C076757000757100757200757300757400758A
:200980007500757610E833F8E933F9E57033F570E57133F571C3E5709AF572E5719BF57371
:2009A0004006857270857371B3E57433F574E57533F575D576CFAA74AB75A870A971D076B2
:2009C000D075D074D073D072D071D070D0D0D0E022C0E0C0D0E82CF8E93DF9EA3EFAEB3F6F
:2009E000FB74003400FCD0D0D0E022C0E0C0D0E82AF8E93BF974003400FAD0D0D0E022C0BB
:200A0000E0C0D0C3E89CF8E99DF9EA9EFAEB9FFB74009400FCD0D0D0E022C0E0C0D0C3E850
:200A20009AF8E99BF974009400FAD0D0D0E022C0E0C0D0C077C078C0797579057B007A0A69
:200A400012095EE8C0E0EAF8EBF9D579EFD0E0FAD0E0C4F579D0E02579F9D0E0C4F579D00D
:200A6000E02579F8D079D078D077D0D0D0E022C0D0C0F075F00A84C425F0D0F0D0D022C068
:200A8000F0C0E0C0D0E8540FC0E0E8C4540F75F00AA4D0F025F0C0E0E954F0C4C0E0E954E6
:200AA0000F75F064A4A9F0F8D0E075F00AA475F064A428F8E935F0F9D0E028F8740039F95C
:200AC000D0D0D0E0D0F022C0D0C0F0C070F57053700F54F0C475F00AA42570D070D0F0D0BD
:200AE000D022C083C082C0D0C08FC0B2C0BF758F0475BF0143B70843B70453B6F743B60475
:200B000090F000A3E582458370F943B602E5B620E1FB30E0F5E5B7540F44A075BB98F5B72C
:200B200053B7FB43B702E5B720E0FB53B7F743B610D0BFD0B2D08FD0D0D082D08322438F6A
:060B40000122538FFE228A
:00000001FF
